{
  "contractName": "memoryApp",
  "abi": [
    {
      "inputs": [
        {
          "internalType": "string",
          "name": "img",
          "type": "string"
        },
        {
          "internalType": "string",
          "name": "comment",
          "type": "string"
        }
      ],
      "name": "createMemory",
      "outputs": [],
      "stateMutability": "nonpayable",
      "type": "function"
    },
    {
      "inputs": [
        {
          "internalType": "address",
          "name": "user",
          "type": "address"
        }
      ],
      "name": "returnMemories",
      "outputs": [
        {
          "components": [
            {
              "internalType": "string",
              "name": "IPFSimg",
              "type": "string"
            },
            {
              "internalType": "string",
              "name": "message",
              "type": "string"
            },
            {
              "internalType": "uint256",
              "name": "time",
              "type": "uint256"
            }
          ],
          "internalType": "struct memoryApp.photoMemory[]",
          "name": "",
          "type": "tuple[]"
        }
      ],
      "stateMutability": "view",
      "type": "function",
      "constant": true
    }
  ],
  "bytecode": "0x608060405234801561001057600080fd5b50610a5a806100206000396000f3fe608060405234801561001057600080fd5b50600436106100365760003560e01c8063101fa9081461003b578063d8cd64791461006b575b600080fd5b61005560048036038101906100509190610388565b610087565b6040516100629190610577565b60405180910390f35b610085600480360381019061008091906106ce565b610252565b005b60606000808373ffffffffffffffffffffffffffffffffffffffff1673ffffffffffffffffffffffffffffffffffffffff168152602001908152602001600020805480602002602001604051908101604052809291908181526020016000905b82821015610247578382906000526020600020906003020160405180606001604052908160008201805461011a90610775565b80601f016020809104026020016040519081016040528092919081815260200182805461014690610775565b80156101935780601f1061016857610100808354040283529160200191610193565b820191906000526020600020905b81548152906001019060200180831161017657829003601f168201915b505050505081526020016001820180546101ac90610775565b80601f01602080910402602001604051908101604052809291908181526020018280546101d890610775565b80156102255780601f106101fa57610100808354040283529160200191610225565b820191906000526020600020905b81548152906001019060200180831161020857829003601f168201915b50505050508152602001600282015481525050815260200190600101906100e7565b505050509050919050565b600060405180606001604052808481526020018381526020014281525090506000803373ffffffffffffffffffffffffffffffffffffffff1673ffffffffffffffffffffffffffffffffffffffff16815260200190815260200160002081908060018154018082558091505060019003906000526020600020906003020160009091909190915060008201518160000190816102ee9190610952565b5060208201518160010190816103049190610952565b50604082015181600201555050505050565b6000604051905090565b600080fd5b600080fd5b600073ffffffffffffffffffffffffffffffffffffffff82169050919050565b60006103558261032a565b9050919050565b6103658161034a565b811461037057600080fd5b50565b6000813590506103828161035c565b92915050565b60006020828403121561039e5761039d610320565b5b60006103ac84828501610373565b91505092915050565b600081519050919050565b600082825260208201905092915050565b6000819050602082019050919050565b600081519050919050565b600082825260208201905092915050565b60005b8381101561041b578082015181840152602081019050610400565b60008484015250505050565b6000601f19601f8301169050919050565b6000610443826103e1565b61044d81856103ec565b935061045d8185602086016103fd565b61046681610427565b840191505092915050565b6000819050919050565b61048481610471565b82525050565b600060608301600083015184820360008601526104a78282610438565b915050602083015184820360208601526104c18282610438565b91505060408301516104d6604086018261047b565b508091505092915050565b60006104ed838361048a565b905092915050565b6000602082019050919050565b600061050d826103b5565b61051781856103c0565b935083602082028501610529856103d1565b8060005b85811015610565578484038952815161054685826104e1565b9450610551836104f5565b925060208a0199505060018101905061052d565b50829750879550505050505092915050565b600060208201905081810360008301526105918184610502565b905092915050565b600080fd5b600080fd5b7f4e487b7100000000000000000000000000000000000000000000000000000000600052604160045260246000fd5b6105db82610427565b810181811067ffffffffffffffff821117156105fa576105f96105a3565b5b80604052505050565b600061060d610316565b905061061982826105d2565b919050565b600067ffffffffffffffff821115610639576106386105a3565b5b61064282610427565b9050602081019050919050565b82818337600083830152505050565b600061067161066c8461061e565b610603565b90508281526020810184848401111561068d5761068c61059e565b5b61069884828561064f565b509392505050565b600082601f8301126106b5576106b4610599565b5b81356106c584826020860161065e565b91505092915050565b600080604083850312156106e5576106e4610320565b5b600083013567ffffffffffffffff81111561070357610702610325565b5b61070f858286016106a0565b925050602083013567ffffffffffffffff8111156107305761072f610325565b5b61073c858286016106a0565b9150509250929050565b7f4e487b7100000000000000000000000000000000000000000000000000000000600052602260045260246000fd5b6000600282049050600182168061078d57607f821691505b6020821081036107a05761079f610746565b5b50919050565b60008190508160005260206000209050919050565b60006020601f8301049050919050565b600082821b905092915050565b6000600883026108087fffffffffffffffffffffffffffffffffffffffffffffffffffffffffffffffff826107cb565b61081286836107cb565b95508019841693508086168417925050509392505050565b6000819050919050565b600061084f61084a61084584610471565b61082a565b610471565b9050919050565b6000819050919050565b61086983610834565b61087d61087582610856565b8484546107d8565b825550505050565b600090565b610892610885565b61089d818484610860565b505050565b5b818110156108c1576108b660008261088a565b6001810190506108a3565b5050565b601f821115610906576108d7816107a6565b6108e0846107bb565b810160208510156108ef578190505b6109036108fb856107bb565b8301826108a2565b50505b505050565b600082821c905092915050565b60006109296000198460080261090b565b1980831691505092915050565b60006109428383610918565b9150826002028217905092915050565b61095b826103e1565b67ffffffffffffffff811115610974576109736105a3565b5b61097e8254610775565b6109898282856108c5565b600060209050601f8311600181146109bc57600084156109aa578287015190505b6109b48582610936565b865550610a1c565b601f1984166109ca866107a6565b60005b828110156109f2578489015182556001820191506020850194506020810190506109cd565b86831015610a0f5784890151610a0b601f891682610918565b8355505b6001600288020188555050505b50505050505056fea26469706673582212208c5ea2ec22690092ad8c7970b6b5e845a55694ea913cfc0c595f21f61239938964736f6c63430008130033",
  "immutableReferences": {},
  "source": "//SPDX-License-Identifier: MIT\r\npragma solidity 0.8.19;\r\n\r\ncontract memoryApp{\r\n    struct photoMemory{\r\n        string IPFSimg;\r\n        string message;\r\n        uint time;\r\n    }\r\n\r\n    mapping(address=> photoMemory[]) memories;\r\n\r\n    function createMemory(string memory img, string memory comment) public {\r\n        photoMemory memory newMemory = photoMemory(img,comment, block.timestamp);\r\n        memories[msg.sender].push(newMemory);\r\n    }\r\n\r\n    function returnMemories(address user) public view returns(photoMemory[] memory){\r\n        return memories[user];\r\n    }\r\n\r\n}",
  "sourcePath": "C:\\Users\\amito\\OneDrive\\Desktop\\BLOCKCHAIN_MEMORY_APP\\contracts\\memoryApp.sol",
  "compiler": {
    "name": "solc",
    "version": "0.8.19+commit.7dd6d404.Emscripten.clang"
  },
  "schemaVersion": "3.4.13",
  "updatedAt": "2023-05-12T05:39:48.181Z",
  "networkType": "ethereum",
  "devdoc": {
    "kind": "dev",
    "methods": {},
    "version": 1
  },
  "userdoc": {
    "kind": "user",
    "methods": {},
    "version": 1
  }
}